S01A000044657369676E4C61625F414B5F41425F53532E73726563CF
S11300000C945A000C9477000C9477000C947700AD
S11300100C9477000C9477000C9477000C94770080
S11300200C9477000C9477000C9477000C94770070
S11300300C9477000C9477000C94E2000C947700F5
S11300400C9477000C9477000C9477000C94770050
S11300500C9477000C9477000C9477000C94770040
S11300600C9477000C9477000C9477000C94770030
S11300700C9477000C9477000C9477000C94770020
S11300800C9477000C9477000C9477000C94770010
S11300900C9477000C9477000C9477000C94770000
S11300A00C9477000C9477000C9477000C947700F0
S11300B00C94770011241FBECFEFD8E0DEBFCDBF74
S11300C011E0A0E0B1E0EAECF5E002C005900D9289
S11300D0AA30B107D9F721E0AAE0B1E001C01D922E
S11300E0AF30B207E1F70E9466010C94E3020C946E
S11300F000008DB18F608DB98EB18F608EB98AB1D9
S11301008C6F8AB98BB18C6F8BB984B1836084B9DD
S113011085B1836085B982E084BD93E095BD99EF94
S113012097BD80936E0008958EB18F608EB9E09173
S11301300E01F0E0E65FFE4F8081803158F4E091DB
S11301400E01F0E0E65FFE4FE081F0E0E050FF4F8B
S1130150808101C08FEF9BB193709BB99BB1282F15
S11301602C7F922B9BB995B19C7F95B995B18370E7
S1130170892B85B980910E01813051F028F08230AD
S113018059F0833069F00FC08EB18E7F8EB90BC0E9
S11301908EB18D7F8EB907C08EB18B7F8EB903C0AF
S11301A08EB1877F8EB980910E0190E001968370A5
S11301B09078992324F401978C6F9F6F0196809314
S11301C00E0108951F920F920FB60F9211242F93D0
S11301D03F934F935F936F937F938F939F93AF93CB
S11301E0BF93EF93FF930E949400FF91EF91BF910F
S11301F0AF919F918F917F916F915F914F913F91BB
S11302002F910F900FBE0F901F901895CF92DF92F1
S1130210EF92FF920F931F93CF93DF939C01992347
S113022014F420E030E0203187E2380714F02FE0A6
S113023037E20AE010E0C901B8010E94BB02CAE03B
S1130240D1E08B83B901330F880B990B0E942F02E5
S11302506B017C0120E030E040E251E40E94850122
S11302600E94F701CB01B8010E94BB028A8320E0FF
S113027030E048EC52E4C701B6010E9485010E94B7
S1130280F701CB01B8010E94BB02898320E030E072
S11302904AE754E4C701B6010E9485010E94F701B0
S11302A0CB01B8010E94BB028883DF91CF911F91DB
S11302B00F91FF90EF90DF90CF90089585B181600A
S11302C085B9089585B1826085B9089584B1836044
S11302D084B90E945E010E9462010E9479007894B0
S11302E0C0E0D0E00DC0CE010E9406012FEF83ECE8
S11302F099E0215080409040E1F700C00000219631
S1130300CF3027E2D2077CF3EBCF0E9499010C9403
S113031081020E947A0258F00E94730240F029F48C
S11303205F3F29F00C946A0251110C94B5020C94AD
S113033070020E94920268F39923B1F3552391F35A
S1130340951B550BBB27AA2762177307840738F040
S11303509F5F5F4F220F331F441FAA1FA9F335D09D
S11303600E2E3AF0E0E832D091505040E695001C51
S1130370CAF72BD0FE2F29D0660F771F881FBB1F0B
S1130380261737074807AB07B0E809F0BB0B802DE9
S1130390BF01FF2793585F4F3AF09E3F510578F015
S11303A00C946A020C94B5025F3FE4F3983ED4F3D4
S11303B0869577956795B795F7959F5FC9F7880FE9
S11303C0911D9695879597F90895E1E0660F771F3B
S11303D0881FBB1F621773078407BA0720F0621BCC
S11303E0730B840BBA0BEE1F88F7E09508950E94F7
S11303F0FE016894B1110C94B50208950E949A020A
S113040088F09F5798F0B92F9927B751B0F0E1F0D1
S1130410660F771F881F991F1AF0BA95C9F714C081
S1130420B13091F00E94B402B1E008950C94B4028A
S1130430672F782F8827B85F39F0B93FCCF38695BA
S113044077956795B395D9F73EF490958095709517
S113045061957F4F8F4F9F4F0895E89409C097FB94
S11304603EF490958095709561957F4F8F4F9F4F87
S11304709923A9F0F92F96E9BB279395F6958795CB
S113048077956795B795F111F8CFFAF4BB0F11F48E
S113049060FF1BC06F5F7F4F8F4F9F4F16C0882335
S11304A011F096E911C0772321F09EE8872F762F6B
S11304B005C0662371F096E8862F70E060E02AF0AC
S11304C09A95660F771F881FDAF7880F9695879598
S11304D097F9089597F99F6780E870E060E00895C0
S11304E09FEF80EC089500240A9416161706180648
S11304F00906089500240A94121613061406050624
S11305000895092E0394000C11F4882352F0BB0FB4
S113051040F4BF2B11F460FF04C06F5F7F4F8F4F17
S11305209F4F089557FD9058440F551F59F05F3F52
S113053071F04795880F97FB991F61F09F3F79F001
S113054087950895121613061406551FF2CF469583
S1130550F1DF08C0161617061806991FF1CF869505
S11305607105610508940895E894BB2766277727E9
S1130570CB0197F9089597FB072E16F4009407D042
S113058077FD09D00E94CF0207FC05D03EF4909578
S113059081959F4F0895709561957F4F0895AA1B8B
S11305A0BB1B51E107C0AA1FBB1FA617B70710F05A
S11305B0A61BB70B881F991F5A95A9F7809590958C
S10D05C0BC01CD010895F894FFCFAB
S10D05CA06E792C2634A0AE6024201
S9030000FC
