S01A000044657369676E4C61625F414B5F41425F53532E73726563CF
S11300000C945A000C9464000C9464000C946400E6
S11300100C9464000C9464000C9464000C946400CC
S11300200C9464000C9464000C9464000C946400BC
S11300300C9464000C9464000C9464000C946400AC
S11300400C9464000C9464000C9464000C9464009C
S11300500C9464000C9464000C9464000C9464008C
S11300600C9464000C9464000C9464000C9464007C
S11300700C9464000C9464000C9464000C9464006C
S11300800C9464000C9464000C9464000C9464005C
S11300900C9464000C9464000C9464000C9464004C
S11300A00C9464000C9464000C9464000C9464003C
S11300B00C94640011241FBECFEFD8E0DEBFCDBF87
S11300C00E9476000C94B0000C94000085B18E7FE1
S11300D085B9089585B1816085B9089585B18D7F0D
S11300E085B9089585B1826085B9089584B1836026
S11300F084B90E946A000E9472000E9466002FEF79
S113010089E698E1215080409040E1F700C000006A
S11301100E946A000E946E002FEF89E698E1215048
S113012080409040E1F700C000000E9466000E94F9
S11301306E002FEF89E698E1215080409040E1F76E
S113014000C000000E946A000E9472002FEF89E63E
S113015098E1215080409040E1F700C00000CDCFED
S1070160F894FFCF3D
S9030000FC
