S01A000044657369676E4C61625F414B5F41425F53532E73726563CF
S11300000C945A000C9477000C9477000C947700AD
S11300100C9477000C9477000C9477000C94770080
S11300200C9477000C9477000C9477000C94770070
S11300300C9477000C9477000C94E2000C947700F5
S11300400C9477000C9477000C94FE070C947700C2
S11300500C9477000C9477000C9477000C94770040
S11300600C9477000C9477000C9477000C94770030
S11300700C9477000C9477000C9477000C94770020
S11300800C9477000C9477000C9477000C94770010
S11300900C9477000C9477000C9477000C94770000
S11300A00C9477000C9477000C9477000C947700F0
S11300B00C94770011241FBECFEFD8E0DEBFCDBF74
S11300C011E0A0E0B1E0ECE0F7E102C005900D9290
S11300D0AC33B107D9F721E0ACE3B1E001C01D9224
S11300E0A13EB207E1F70E9471070C94840B0C94B3
S11300F000008DB18F608DB98EB18F608EB98AB1D9
S11301008C6F8AB98BB18C6F8BB984B1836084B9DD
S113011085B1836085B982E084BD93E095BD99EF94
S113012097BD80936E0008958EB18F608EB9E09173
S11301304001F0E0E45CFE4F8081803158F4E091AE
S11301404001F0E0E45CFE4FE081F0E0E050FF4F5E
S1130150808101C08FEF9BB193709BB99BB1282F15
S11301602C7F922B9BB995B19C7F95B995B18370E7
S1130170892B85B980914001813051F028F082307B
S113018059F0833069F00FC08EB18E7F8EB90BC0E9
S11301908EB18D7F8EB907C08EB18B7F8EB903C0AF
S11301A08EB1877F8EB98091400190E00196837073
S11301B09078992324F401978C6F9F6F0196809314
S11301C0400108951F920F920FB60F9211242F939E
S11301D03F934F935F936F937F938F939F93AF93CB
S11301E0BF93EF93FF930E949400FF91EF91BF910F
S11301F0AF919F918F917F916F915F914F913F91BB
S11302002F910F900FBE0F901F901895CF92DF92F1
S1130210EF92FF920F931F93CF93DF939C01992347
S113022014F420E030E0203187E2380714F02FE0A6
S113023037E20AE010E0C901B8010E947409CCE376
S1130240D1E08B83B901330F880B990B0E94D80836
S11302506B017C0120E030E040E251E40E942E0872
S11302600E94A008CB01B8010E9474098A8320E08F
S113027030E048EC52E4C701B6010E942E080E9407
S1130280A008CB01B8010E947409898320E030E002
S11302904AE754E4C701B6010E942E080E94A00850
S11302A0CB01B8010E9474098883DF91CF911F911B
S11302B00F91FF90EF90DF90CF90089587B1886001
S11302C087B9089587B1877F87B9089588B1877FF3
S11302D088B9089588B1886088B9089586B183FB88
S11302E0882780F908950E945E010E9466018FE7C5
S11302F097E00197F1F700C000000E9462010E949C
S11303006A01E7E1F1E03197F1F700C000000E94D3
S11303106E01E7E6F6E03197F1F700C000000895BA
S1130320CF93C82F0E945E010E94660185E08A95E2
S1130330F1F70000C1110E946A018FEE90E001976D
S1130340F1F700C000000E946A0195E09A95F1F768
S11303500000CF9108950E945E010E94660185E02D
S11303608A95F1F700000E9462010E946A019AE4F2
S11303709A95F1F700C00E946E01811181E090EF1F
S11303809A95F1F70895CF93DF93D82FC0E006C074
S11303908D2F81700E949001D695CF5FC830C0F335
S11303A0DF91CF910895CF93DF93C0E0D0E006C0F2
S11303B0D6950E94AB018111D068CF5FC830C0F3DD
S11303C08D2FDF91CF910895CF930E9473018111F6
S11303D03AC08CEC0E94C30184E40E94C3012FEF55
S11303E08EE994E2215080409040E1F700C0000083
S11303F00E94730181112AC08CEC0E94C3018EEB10
S11304000E94C3010E94D301C82F0E94D30190E02F
S1130410982F88278C2B9C01220F331F880F991F3C
S1130420880F991F880F991F280F391FC901992315
S11304300CF40F9695958795959587959595879541
S11304409595879505C081EF98ED02C081EF98EDF1
S1130450CF9108951092B90088E48093B80084E0A5
S11304608093BC00089584EA8093BC008091BC0012
S11304708823E4F7089584E98093BC008FE891E031
S11304800197F1F700C0000008958093BB0084E851
S11304908093BC008091BC008823E4F7089584EC29
S11304A08093BC008091BC008823E4F78091BB005A
S11304B0089584E88093BC008091BC008823E4F70D
S11304C08091BB000895CF93DF93D82FC62F0E944D
S11304D033028CEE0E9445028D2F0E9445028C2F20
S11304E00E9445020E943B02DF91CF910895CF9371
S11304F0C82F0E9433028CEE0E9445028C2F0E946A
S113050045020E9433028DEE0E9445020E94590268
S1130510C82F0E943B028C2FCF910895EF92FF9237
S11305201F93CF93DF93CDB7DEB768970FB6F894D8
S1130530DEBF0FBECDBF0E9433028CEE0E94450287
S113054088E80E9445020E9433028DEE0E94450213
S113055010E00CC0E12EF12C0E944F02E1E0F0E02B
S1130560EC0FFD1FEE0DFF1D80831F5F173190F30D
S11305700E945902182F0E943B028A8190E0982F12
S113058088272981822B9093C8018093C7018C818D
S113059090E0982F88272B81822B9093CA01809317
S11305A0C9018E8190E0982F88272D81822B90930A
S11305B0DA018093D901888590E0982F88272F81CC
S11305C0822B9093D2018093D1018A8590E0982F59
S11305D088272985822B9093CC018093CB018C852D
S11305E090E0982F88272B85822B9093D4018093B9
S11305F0D3018E8590E0982F88272D85822B9093A8
S1130600CE018093CD01888990E0982F88272F858B
S1130610822B9093D0018093CF018A8990E0982F08
S113062088272989822B9093DC018093DB018C89B4
S113063090E0982F88272B89822B9093C601809372
S1130640C5018E8990E0982F88272D89822B90935D
S1130650D6018093D501812F90E0982F88272F8988
S1130660822B9093D8018093D70168960FB6F894A3
S1130670DEBF0FBECDBFDF91CF911F91FF90EF90F2
S113068008952FEF81EE94E0215080409040E1F7EF
S113069000C0000080ED0E947702883501F566EB0A
S11306A080EE0E9463022FEF81EE94E0215080409F
S11306B09040E1F700C000000E948E0267E284EFE0
S11306C00E94630260EA85EF0E9463022FEF81EECD
S11306D094E0215080409040E1F700C0000008956C
S11306E04F925F926F927F928F929F92AF92BF923E
S11306F0CF92DF92EF92FF926B017C01AB01BC01C0
S1130700689412F875956795579547951694D1F79F
S11307104090C7015090C801612C712CD301C201D3
S1130720880F991FAA1FBB1F9A01AB01281B390B05
S11307304A0B5B0BA091C901B091CA010E94D40974
S11307404B015C01072E7BE0B594A79497948794A2
S11307507A95D1F7702DD701C601689413F8B59531
S1130760A795979587951694D1F7BC01CD01641987
S11307707509860997099B01AC010E9464099B01D4
S1130780AC01012E1CE055954795379527951A9590
S1130790D1F7102DA091D901B091DA010E94D409AA
S11307A0DC01CB01072E7EE0B595A795979587953B
S11307B07A95D1F7702D880D991DAA1DBB1D8093C4
S11307C0DD019093DE01A093DF01B093E0016C01A1
S11307D07D01CC0CDD1CEE1CFF1CCC0CDD1CEE1CC6
S11307E0FF1C8C0D9D1DAE1DBF1D80589F4FAF4F2C
S11307F0BF4F692F7A2F8B2F992787FD9A95FF90EA
S1130800EF90DF90CF90BF90AF909F908F907F90AC
S11308106F905F904F9008952F923F924F925F9206
S11308206F927F928F929F92AF92BF92CF92DF92FC
S1130830EF92FF920F931F93CF93DF93CDB7DEB761
S113084066970FB6F894DEBF0FBECDBF6F87788B67
S1130850898B9A8B8091DD019091DE01A091DF015B
S1130860B091E0016C017D01FF0CCC08DC2C760119
S1130870282F392F4A2F5B2F6C2D7C2D8C2D9C2DEE
S1130880345F414051096109710981099109298342
S11308903A83442E552E662E772E282E392EA22EDC
S11308A0B32EC42ED52EE62EF72E082F192F0E9414
S11308B0DC092B833C834D835E836F837887898730
S11308C09A87B090DC01A090DB011B2D110F110B56
S11308D0C12ED12EE12EF12E012F0E94DC092B878F
S11308E03C874D875E87862E972E8C8B9B8BB09092
S11308F0D001A090CF011B2D110F110BC12ED12EB1
S1130900E12EF12E012F29813A81442D552D662D9A
S1130910772D822D932D0E94DC0901E10E940C0B9E
S1130920A22EB32EC42ED52EE62EF72E082F192F65
S11309302B853C854D855E85682D792D8C899B8919
S11309400E94430B822E932E4C875B87B62FA72FD2
S1130950F82FE92F3091CE012091CD01932F990FDB
S1130960990B492F592F692F792F892F03E20E9460
S11309700C0BA22EB32EC42ED52EE62EF72E082F46
S1130980192F282D392D4C855B856B2F7A2F8F2FAE
S11309909E2F0E94430B2B873C874D875E876B8B72
S11309A07C8B8D8B9E8BB090D401A090D3011B2D9A
S11309B0110F110BC12ED12EE12EF12E012F2B81FF
S11309C03C814D815E816F81788589859A850E94FD
S11309D0DC0908E00E94250B2B833C834D835E8356
S11309E0862E972E88879F83B090CC01A090CB0150
S11309F01B2D110F110BC12ED12EE12EF12E012F23
S1130A0029813A81442D552D662D772D822D932DE4
S1130A100E94DC090CE00E940C0BA22EB32EC42E03
S1130A20D52EE62EF72E082F192F2B813C814D81D0
S1130A305E81682D792D88859F810E94430B7058B3
S1130A408F4F9F4FE091D101F091D2011F01AE2E43
S1130A50B32CC12CD12CE12CF12C00E010E00E942D
S1130A60DC0901E20E94250B422E532E642E752EC2
S1130A70862E972E8A839983A0E00E94550B09F451
S1130A8000C180E090E0A0E1B0E02F853889498979
S1130A905A89821B930BA40BB50B6C017D01FF0CCF
S1130AA0CC08DC2C7601282F392F4A2F5B2F6C2D94
S1130AB07C2D8C2D9C2D0FE10E940C0BAB84BC84EF
S1130AC0CD84DE84EB88FC880D891E890E944C0B42
S1130AD00F2EF5E3AF2EF02D0F2EFCE0BF2EF02DE0
S1130AE0C12CD12CE12CF12C00E010E00E94DC0997
S1130AF0A42CB52CC62CD72CE82CF92C0A811981EE
S1130B000E94370A2C873B8749835A836B837C83F3
S1130B108D839E83F091D801A091D701EF2FEE0F22
S1130B20EE0B0DE00E94250B222E332E442E552E63
S1130B30662E772E882E992EA22EB32EC42ED52E55
S1130B40E62EF72E082F192F2A2F3F2F4E2F5E2F18
S1130B506E2F7E2F8E2F9E2F0E94DC09A22EB32E85
S1130B60C42ED52EE62EF72E082F192F222D332D25
S1130B70442D552D662D772D882D992D0E94DC0945
S1130B8009E10E94250B522E432E342E252E6F830D
S1130B90788789879A87B090D601A090D5011B2DBC
S1130BA0110F110BC12ED12EE12EF12E012F2C8508
S1130BB03B8549815A816B817C818D819E810E9414
S1130BC0DC0903E10E94250B622E732E842E952EE0
S1130BD0B62FA72FF82FE92F2C853B8549815A8101
S1130BE06B817C818D819E81A52CB42CC32CD22C4D
S1130BF0EF80F88409851A850E94430BA22EB32E38
S1130C00C42ED52EE62EF72E082F192F262D372D7C
S1130C10482D592D6B2F7A2F8F2F9E2F0E94430B17
S1130C2008E00E94250B822E932E4A835983B62F07
S1130C30A72FF82FE92F3091C6012091C501932FDA
S1130C40990F990B492F592F692F792F892F04E078
S1130C500E940C0BA22EB32EC42ED52EE62EF72EF8
S1130C60082F192F282D392D4A8159816B2F7A2F5E
S1130C708F2F9E2F0E94430B622F732F842F952F4B
S1130C8004C060E070E080E090E066960FB6F894EF
S1130C90DEBF0FBECDBFDF91CF911F910F91FF90AB
S1130CA0EF90DF90CF90BF90AF909F908F907F9008
S1130CB06F905F904F903F902F9008951F93CF9324
S1130CC0DF930E9433028CEE0E9445028AEF0E9459
S1130CD045020E9433028DEE0E9445020E944F029B
S1130CE0182F0E944F02C82F0E945902D82F0E9429
S1130CF03B02812F90E0A0E0B0E0072E7CE0880F5B
S1130D00991FAA1FBB1F7A95D1F7702D4C2F50E065
S1130D1060E070E0440F551F661F771F440F551F96
S1130D20661F771F440F551F661F771F440F551FFB
S1130D30661F771F842B952BA62BB72BD295DF70BC
S1130D40BC01CD016D2B0E9470032AE030E040E02D
S1130D5050E00E94AA09C901DF91CF911F91089523
S1130D601F93CF93DF930E9433028CEE0E944502BF
S1130D708AEF0E9445020E9433028DEE0E944502D2
S1130D800E944F02182F0E944F02C82F0E9459023E
S1130D90D82F0E943B02812F90E0A0E0B0E0072E04
S1130DA07CE0880F991FAA1FBB1F7A95D1F7702D7D
S1130DB04C2F50E060E070E0440F551F661F771F12
S1130DC0440F551F661F771F440F551F661F771F5B
S1130DD0440F551F661F771F842B952BA62BB72B0B
S1130DE0D295DF70BC01CD016D2B0E9470030E946F
S1130DF033028CEE0E94450287EF0E9445020E9456
S1130E0033028DEE0E9445020E944F02182F0E9469
S1130E104F02C82F0E945902D82F0E943B02812FF3
S1130E2090E0A0E0B0E0072E7CE0880F991FAA1F95
S1130E30BB1F7A95D1F7702D4C2F50E060E070E025
S1130E40440F551F661F771F440F551F661F771FDA
S1130E50440F551F661F771F440F551F661F771FCA
S1130E60842B952BA62BB72BD295DF70BC01CD011B
S1130E706D2B0E940C0420E034E640E050E00E9418
S1130E808809C901DF91CF911F91089587B18B7FA4
S1130E9087B988B1846088B9089596B1892F847020
S1130EA092FD13C09091410191110FC02FEF30E7D3
S1130EB082E0215030408040E1F700C000003299C8
S1130EC00EC081E0809341010895882349F0809108
S1130ED04101882329F01092410180E00895892F6F
S1130EE008950E94D0072FEF81EE94E021508040B6
S1130EF09040E1F700C000008AE091E00E94F5070D
S1130F0081E291E00E94F5070E942A020E944607AE
S1130F100E9479000E94410378940E944D0788231F
S1130F2099F08091420190E0019663E070E00E94A4
S1130F307409809342012FEF83EC99E021508040A3
S1130F409040E1F700C0000080914201813049F0F7
S1130F5018F0823059F018C00E945E060E94060103
S1130F6015C00E94B0060E94060110C00E94E40150
S1130F70813F28ED920729F488EB92E20E94060152
S1130F8005C00E94060102C0109242018FEF99E64B
S1130F9028E1815090402040E1F700C00000BDCF1F
S1130FA01092C50087E68093C400E1ECF0E088E18C
S1130FB0808380818068808386E08093C2007894F7
S1130FC008959091C00095FFFCCF8093C6000895CA
S1130FD0CF93DF93EC0103C021960E94E10788813F
S1130FE08111FACFDF91CF9108950E94E8078DE037
S1130FF00E94E1078AE00E94E10708951F920F9280
S11310000FB60F9211242F933F938F939F93EF93D7
S1131010FF933091C6008091440190E001968F7750
S11310209078992324F4019780689F6F019620910A
S11310304301281741F0E0914401F0E0EB5BFE4FDF
S1131040308380934401FF91EF919F918F913F9161
S11310502F910F900FBE0F901F9018950E94420879
S11310600C942A090E94230958F00E941C0940F09C
S113107029F45F3F29F00C94130951110C945E0973
S11310800C9419090E943B0968F39923B1F3552381
S113109091F3951B550BBB27AA2762177307840787
S11310A038F09F5F5F4F220F331F441FAA1FA9F31D
S11310B035D00E2E3AF0E0E832D091505040E6950B
S11310C0001CCAF72BD0FE2F29D0660F771F881F6C
S11310D0BB1F261737074807AB07B0E809F0BB0B5F
S11310E0802DBF01FF2793585F4F3AF09E3F510573
S11310F078F00C9413090C945E095F3FE4F3983E76
S1131100D4F3869577956795B795F7959F5FC9F75B
S1131110880F911D9695879597F90895E1E0660FDC
S1131120771F881FBB1F621773078407BA0720F055
S1131130621B730B840BBA0BEE1F88F7E0950895BE
S11311400E94A7086894B1110C945E0908950E9446
S1131150430988F09F5798F0B92F9927B751B0F0F9
S1131160E1F0660F771F881F991F1AF0BA95C9F727
S113117014C0B13091F00E945D09B1E008950C945F
S11311805D09672F782F8827B85F39F0B93FCCF312
S1131190869577956795B395D9F73EF490958095A4
S11311A0709561957F4F8F4F9F4F0895E89409C0C4
S11311B097FB3EF490958095709561957F4F8F4F86
S11311C09F4F9923A9F0F92F96E9BB279395F6959C
S11311D0879577956795B795F111F8CFFAF4BB0F1A
S11311E011F460FF1BC06F5F7F4F8F4F9F4F16C07E
S11311F0882311F096E911C0772321F09EE8872F08
S1131200762F05C0662371F096E8862F70E060E0C3
S11312102AF09A95660F771F881FDAF7880F96953C
S1131220879597F9089597F99F6780E870E060E0E3
S113123008959FEF80EC089500240A94161617066B
S113124018060906089500240A94121613061406B3
S113125005060895092E0394000C11F4882352F016
S1131260BB0F40F4BF2B11F460FF04C06F5F7F4FCE
S11312708F4F9F4F089557FD9058440F551F59F0B5
S11312805F3F71F04795880F97FB991F61F09F3F6F
S113129079F087950895121613061406551FF2CF98
S11312A04695F1DF08C0161617061806991FF1CFE8
S11312B086957105610508940895E894BB2766270F
S11312C07727CB0197F90895DB018F939F930E94B1
S11312D0C909BF91AF91A29F800D911DA39F900D4D
S11312E0B29F900D1124089597FB072E16F40094D5
S11312F007D077FD09D00E94610B07FC05D03EF4AE
S1131300909581959F4F0895709561957F4F0895AD
S1131310A1E21A2EAA1BBB1BFD010DC0AA1FBB1FF5
S1131320EE1FFF1FA217B307E407F50720F0A21B67
S1131330B30BE40BF50B661F771F881F991F1A94D4
S113134069F760957095809590959B01AC01BD01FE
S1131350CF010895052E97FB1EF400940E94C10945
S113136057FD07D00E94880907FC03D04EF40C9463
S1131370C10950954095309521953F4F4F4F5F4F90
S1131380089590958095709561957F4F8F4F9F4FED
S113139008950E94750BA59F900DB49F900DA49F76
S11313A0800D911D11240895B7FF0C94C9090E9462
S11313B0C909821B930B0895DF93CF931F930F9357
S11313C09A9DF02D219FF00D8B9DF00D8A9DE02DAF
S11313D0F10D039FF00D029FE00DF11D4E9DE00DF8
S11313E0F11D5E9DF00D4F9DF00D7F936F93BF92A5
S11313F0AF925F934F93D5010E94750B8B01AC01A3
S1131400D7010E94750BEB01E80FF91FD6010E946A
S11314102C0A2F913F91D6010E94750BC60FD71F3E
S1131420E81FF91FAF91BF910E942C0A2F913F91A1
S11314300E94750BC60FD71FE81FF91FD6010E9423
S1131440750BE60FF71F9801BE01CF0111240F9110
S11314501F91CF91DF9108950E94750B460F571F7E
S1131460C81FD91F08F431960895689401C0E89400
S1131470F92FF12B12F00C94690AA0E0B0E0E3E438
S1131480FAE00C94DB0A092E059422F40E94C50AA2
S1131490112392F4F0E80F26FFEFE094F094009506
S11314A01095B094C094D094A194BF0ACF0ADF0AD7
S11314B0EF0AFF0A0F0B1F0B0E94740A07FC0E941D
S11314C0C50ACDB7DEB7ECE00C94F70A689401C006
S11314D0E8948F929F92CF93DF930E94740ADF91D6
S11314E0CF919F908F90089588249924F401E4016A
S11314F0B0E49F93AA279A158B049C04ED05FE057E
S1131500CF05D007A10798F4AD2FDC2FCF2FFE2FE6
S1131510E92D982C892E982F872F762F652F542FFD
S1131520432F322F2227B85031F7BF9127C01B2EEB
S1131530BF91BB27220F331F441F551F661F771F00
S1131540881F991F881C991CEE1FFF1FCC1FDD1FCD
S1131550AA1FBB1F8A149B04EC05FD05CE05DF05FD
S1131560A007B10748F08A189B08EC09FD09CE09C9
S1131570DF09A00BB10B21601A94E1F62EF494015B
S1131580AF01BE01CD01000C089560957095809562
S1131590909530954095509521953F4F4F4F5F4F13
S11315A06F4F7F4F8F4F9F4F08952F923F924F92CF
S11315B05F926F927F928F929F92AF92BF92CF92DF
S11315C0DF92EF92FF920F931F93CF93DF93CDB7E8
S11315D0DEB7CA1BDB0B0FB6F894DEBF0FBECDBF60
S11315E009942A88398848885F846E847D848C8431
S11315F09B84AA84B984C884DF80EE80FD800C813A
S11316001B81AA81B981CE0FD11D0FB6F894DEBF1C
S11316100FBECDBFED0108950F93083090F0982FC1
S1131620872F762F652F542F432F322F22270850D0
S1131630F4CF220F331F441F551F661F771F881FC7
S1131640991F0A95B2F70F91089597FB10F8169415
S113165000080F93083098F00850232F342F452F9B
S1131660562F672F782F892F902DF4CF05949795B7
S113167087957795679557954795379527950A9553
S1131680AAF70F9108952A0D3B1D4C1D5D1D6E1D7B
S11316907F1D801F911F08952A193B094C095D097C
S11316A06E097F09800B910B08950024A7FD009417
S11316B02A17300540055005600570058005900522
S11316C00895AA1BBB1B51E107C0AA1FBB1FA61785
S11316D0B70710F0A61BB70B881F991F5A95A9F7D7
S11316E080959095BC01CD010895A29FB001B39F50
S11316F0C001A39F700D811D1124911DB29F700D17
S10F1700811D1124911D0895F894FFCF61
S113170C06E792C2634A0AE602423D3D3D2055413A
S113171C5254204543484F2054455354203D3D3D9D
S113172C00577069737A20636F732069207763693B
S10F173C736E696A20454E54455200004B
S9030000FC
