:100000000C945A000C9477000C9477000C947700B1
:100010000C9477000C9477000C9477000C94770084
:100020000C9477000C9477000C9477000C94770074
:100030000C9477000C9477000C94C7000C94770014
:100040000C9477000C9477000C942A020C9477009F
:100050000C9477000C9477000C9477000C94770044
:100060000C9477000C9477000C9477000C94770034
:100070000C9477000C9477000C9477000C94770024
:100080000C9477000C9477000C9477000C94770014
:100090000C9477000C9477000C9477000C94770004
:1000A0000C9477000C9477000C9477000C947700F4
:1000B0000C94770011241FBECFEFD8E0DEBFCDBF78
:1000C00011E0A0E0B1E0E2E8F5E002C005900D9299
:1000D000A637B107D9F721E0A6E7B1E001C01D922C
:1000E000AD3FB207E1F70E94EB000C94BF020C9405
:1000F00000008EB18F608EB9E0917A01F0E0EA588D
:10010000FE4F8081803158F4E0917A01F0E0EA58A6
:10011000FE4FE081F0E0E050FF4F808101C08FEFA3
:100120009BB193709BB99BB1282F2C7F922B9BB9CD
:1001300095B19C7F95B995B18370892B85B98091D4
:100140007A01813051F028F0823059F0833069F023
:100150000FC08EB18E7F8EB90BC08EB18D7F8EB9E0
:1001600007C08EB18B7F8EB903C08EB1877F8EB9E9
:1001700080917A0190E0019683709078992324F41D
:1001800001978C6F9F6F019680937A0108951F925B
:100190000F920FB60F9211242F933F934F935F93BB
:1001A0006F937F938F939F93AF93BF93EF93FF933F
:1001B0000E947900FF91EF91BF91AF919F918F9134
:1001C0007F916F915F914F913F912F910F900FBE53
:1001D0000F901F9018950E9447012FEF81EE94E039
:1001E000215080409040E1F700C000008AE091E09B
:1001F0000E94750181E291E00E947501C12CD12C11
:1002000076010E945F01882309F10E945A02C82FDB
:100210008BE391E00E9468016C2F70E080E090E039
:100220000E94CE018FE391E00E9468018C2F0E9412
:100230005801CD3011F0CA3029F483E491E00E94D6
:10024000750104C082E491E00E947501C0FC10C0F9
:100250008CE491E00E946801C701B60196958795EC
:10026000779567950E947E0188E591E00E9475016F
:100270002FEF83ED90E3215080409040E1F700C0E4
:1002800000002FEFC21AD20AE20AF20ABACF109285
:10029000C50087E68093C400E1ECF0E088E180834C
:1002A00080818068808386E08093C200789408957E
:1002B0009091C00095FFFCCF8093C60008952091D7
:1002C0007C0190917B0181E0291301C080E00895B9
:1002D000CF93DF93EC0103C021960E9458018881DF
:1002E0008111FACFDF91CF9108950E9468018DE0CE
:1002F0000E9458018AE00E9458010895FF920F93CE
:100300001F93CF93DF93CDB7DEB72C970FB6F8943A
:10031000DEBF0FBECDBF1C86992354F49095809507
:10032000709561957F4F8F4F9F4FFF24F39401C0CD
:10033000F12C611571058105910599F480E30E9406
:10034000580120C02AE030E040E050E00E947E02E8
:10035000605DF80162938F01622F732F842F952FB8
:1003600003C08E01045F1F4F1616170618061906E4
:100370004CF3FF2021F0F8018DE282938F01C80138
:100380000E9468012C960FB6F894DEBF0FBECDBF59
:10039000DF91CF911F910F91FF900895CF92DF923F
:1003A000EF92FF920F931F93CF93DF93CDB7DEB7FA
:1003B0006A970FB6F894DEBF0FBECDBF21E1E4E629
:1003C000F1E0DE01119601900D922A95E1F71A8E67
:1003D0006115710581059105F9F48DE591E00E94A3
:1003E000680129C06B017C012FE0C222DD24EE24CC
:1003F000FF24E1E0F0E0EC0FFD1FEC0DFD1D20817E
:10040000F80122938F01689413F896958795779554
:1004100067951694D1F703C08E01065E1F4F6115D4
:10042000710581059105F1F681E691E00E94680170
:10043000C8010E9468016A960FB6F894DEBF0FBE2D
:10044000CDBFDF91CF911F910F91FF90EF90DF9083
:10045000CF9008951F920F920FB60F9211242F93F1
:100460003F938F939F93EF93FF933091C6008091BA
:100470007C0190E001968F779078992324F401977E
:1004800080689F6F019620917B01281741F0E091D1
:100490007C01F0E0E358FE4F308380937C01FF91B4
:1004A000EF919F918F913F912F910F900FBE0F90E1
:1004B0001F9018954FB7F89490917C0180917B0123
:1004C000981303C04FBF80E00895E0917B01F0E0F6
:1004D000E358FE4F808120917B0130E02F5F3F4F3A
:1004E0002F773078332334F42150310920683F6F5F
:1004F0002F5F3F4F20937B014FBF0895052E97FB41
:100500001EF400940E94950257FD07D00E949D02A0
:1005100007FC03D04EF40C9495025095409530950D
:1005200021953F4F4F4F5F4F08959095809570955F
:1005300061957F4F8F4F9F4F0895A1E21A2EAA1BFE
:10054000BB1BFD010DC0AA1FBB1FEE1FFF1FA21783
:10055000B307E407F50720F0A21BB30BE40BF50B80
:10056000661F771F881F991F1A9469F76095709509
:10057000809590959B01AC01BD01CF010895F89441
:02058000FFCFAB
:1005820006E792C2634A0AE602423D3D3D205541DA
:100592005254204543484F2054455354203D3D3D3D
:1005A20000577069737A20636F73206920776369DB
:1005B200736E696A20454E5445520052585B005D85
:1005C2003A2000203C454E5445523E002D2D2D2010
:1005D200416C6976653A2000202D2D2D003078304F
:1005E20000307800303132333435363738394142D1
:0605F200434445460000F1
:00000001FF
