:100000000C945D000C948D0D0C948D0D0C948D0D45
:100010000C948D0D0C948D0D0C948D0D0C948D0DF8
:100020000C948D0D0C948D0D0C948D0D0C948D0DE8
:100030000C948D0D0C948D0D0C940B0A0C948D0D5D
:100040000C948D0D0C948D0D0C947D090C948D0DDC
:100050000C948D0D0C948D0D0C948D0D0C948D0DB8
:100060000C948D0D0C948D0D0C948D0D0C948D0DA8
:100070000C948D0D0C948D0D0C948D0D0C948D0D98
:100080000C948D0D0C948D0D0C948D0D0C948D0D88
:100090000C948D0D0C948D0D0C948D0D0C948D0D78
:1000A0000C948D0D0C948D0D0C948D0D0C948D0D68
:1000B0000C948D0D01000164800011241FBECFEF50
:1000C000D8E0DEBFCDBFE4EBF0E040E017C0B59173
:1000D000A59135912591059107FD0CC095918591CC
:1000E000EF01F92FE82F05900D92A217B307D9F76A
:1000F000FE0104C01D92A217B307E1F7E93BF40724
:0E01000031F70E9427030C94B80CF894FFCF3F
:10010E0041546D6567613332385042205541525427
:10011E0020546573740053797374656D2075727510
:10012E0063686F6D696F6E79210052585B005D3A9E
:10013E002000203C454E5445523E00002D2D2D20D2
:10014E00416C6976653A20002054656D7065726168
:10015E00747572653A2000205072657373757265FE
:10016E003A20002044532054656D70657261747599
:0A017E0072653A2000202D2D2D009F
:100188003078300030780030313233343536373813
:08019800394142434445460091
:0A01A00006E792C2634A0AE6024233
:1001AA002F923F924F925F926F927F928F929F927D
:1001BA00AF92BF92CF92DF92EF92FF920F931F936B
:1001CA00CF93DF93CDB7DEB766970FB6F894DEBF4D
:1001DA000FBECDBF6F87788B898B9A8B8091180160
:1001EA0090911901A0911A01B0911B016C017D0136
:1001FA00FF0CCC08DC2C7601282F392F4A2F5B2FD5
:10020A006C2D7C2D8C2D9C2D345F41405109610948
:10021A0071098109910929833A83442E552E662E44
:10022A00772E282E392EA22EB32EC42ED52EE62EA8
:10023A00F72E082F192F0E9479082B833C834D83B0
:10024A005E836F83788789879A87B0901701A09019
:10025A0016011B2D110F110BC12ED12EE12EF12EDD
:10026A00012F0E9479082B873C874D875E87862E4F
:10027A00972E8C8B9B8BB0900B01A0900A011B2DA3
:10028A00110F110BC12ED12EE12EF12E012F298132
:10029A003A81442D552D662D772D822D932D0E945E
:1002AA00790801E10E94630BA22EB32EC42ED52E2B
:1002BA00E62EF72E082F192F2B853C854D855E8556
:1002CA00682D792D8C899B890E940F0D822E932E81
:1002DA004C875B87B62FA72FF82FE92F309109019A
:1002EA0020910801932F990F990B492F592F692FA4
:1002FA00792F892F03E20E94630BA22EB32EC42EFC
:10030A00D52EE62EF72E082F192F282D392D4C859C
:10031A005B856B2F7A2F8F2F9E2F0E940F0D2B87B5
:10032A003C874D875E876B8B7C8B8D8B9E8BB090C9
:10033A000F01A0900E011B2D110F110BC12ED12EF2
:10034A00E12EF12E012F2B813C814D815E816F813F
:10035A00788589859A850E94790808E00E94BB0AF7
:10036A002B833C834D835E83862E972E88879F83BB
:10037A00B0900701A09006011B2D110F110BC12E81
:10038A00D12EE12EF12E012F29813A81442D552DAE
:10039A00662D772D822D932D0E9479080CE00E94FC
:1003AA00630BA22EB32EC42ED52EE62EF72E082FBF
:1003BA00192F2B813C814D815E81682D792D88858D
:1003CA009F810E940F0D70588F4F9F4FE0910C0133
:1003DA00F0910D011F01AE2EB32CC12CD12CE12CB2
:1003EA00F12C00E010E00E94790801E20E94BB0AA9
:1003FA00422E532E642E752E862E972E8A8399832B
:10040A00A0E00E94A10C09F400C180E090E0A0E104
:10041A00B0E02F85388949895A89821B930BA40B2E
:10042A00B50B6C017D01FF0CCC08DC2C7601282F62
:10043A00392F4A2F5B2F6C2D7C2D8C2D9C2D0FE193
:10044A000E94630BAB84BC84CD84DE84EB88FC8879
:10045A000D891E890E94180D0F2EF5E3AF2EF02D7F
:10046A000F2EFCE0BF2EF02DC12CD12CE12CF12C4B
:10047A0000E010E00E947908A42CB52CC62CD72CD9
:10048A00E82CF92C0A8119810E944E092C873B8796
:10049A0049835A836B837C838D839E83F0911301F6
:1004AA00A0911201EF2FEE0FEE0B0DE00E94BB0A96
:1004BA00222E332E442E552E662E772E882E992ED6
:1004CA00A22EB32EC42ED52EE62EF72E082F192FC4
:1004DA002A2F3F2F4E2F5E2F6E2F7E2F8E2F9E2F6D
:1004EA000E947908A22EB32EC42ED52EE62EF72E00
:1004FA00082F192F222D332D442D552D662D772D9A
:10050A00882D992D0E94790809E10E94BB0A522E72
:10051A00432E342E252E6F83788789879A87B09049
:10052A001101A09010011B2D110F110BC12ED12EFC
:10053A00E12EF12E012F2C853B8549815A816B8151
:10054A007C818D819E810E94790803E10E94BB0A09
:10055A00622E732E842E952EB62FA72FF82FE92FF1
:10056A002C853B8549815A816B817C818D819E8155
:10057A00A52CB42CC32CD22CEF80F88409851A85BB
:10058A000E940F0DA22EB32EC42ED52EE62EF72EC4
:10059A00082F192F262D372D482D592D6B2F7A2FDD
:1005AA008F2F9E2F0E940F0D08E00E94BB0A822EF9
:1005BA00932E4A835983B62FA72FF82FE92F30910C
:1005CA00010120910001932F990F990B492F592F5F
:1005DA00692F792F892F04E00E94630BA22EB32E74
:1005EA00C42ED52EE62EF72E082F192F282D392D99
:1005FA004A8159816B2F7A2F8F2F9E2F0E940F0DC0
:10060A00622F732F842F952F04C060E070E080E082
:10061A0090E066960FB6F894DEBF0FBECDBFDF91AD
:10062A00CF911F910F91FF90EF90DF90CF90BF90E5
:10063A00AF909F908F907F906F905F904F903F9078
:04064A002F90089550
:10064E00CF93DF930F92CDB7DEB71982789487B12F
:10065E00836087B988B18E7F88B90E94250C6EE0C1
:10066E0071E080E00E94FD0C64E271E080E00E9487
:10067E00FD0C78940E94EB0C0E94390D0E94120B17
:10068E000E94AD097894C12CD12C76010E946E0D7A
:10069E008FE19EE40197F1F700C000000E94720DF9
:1006AE008FE19EE40197F1F700C000000E94F40C68
:1006BE00882371F10E94530A182F68E371E080E0DD
:1006CE000E94C20B612F70E080E090E00E947306E2
:1006DE006CE371E080E00E94C20B812F0E94400DFE
:1006EE001D3011F01A3031F460E471E080E00E94A8
:1006FE00FD0C05C069E471E080E00E94FD0C9FEFE7
:10070E0021EE84E0915020408040E1F700C00000CF
:10071E00C0FC41C06AE471E080E00E94C20BC701D8
:10072E00B60196958795779567950E94D70766E5EA
:10073E0071E080E00E94C20B0E948507BC01990FF8
:10074E00880B990B0E94D70765E671E080E00E9446
:10075E00C20B0E946E05BC0180E090E00E94D7079C
:10076E0061E771E080E00E94C20B0E94C908BC01E3
:10077E00990F880B990B0E94D70763E871E080E010
:10078E000E94FD0C9FEF20E782E0915020408040B8
:10079E00E1F700C000009FEF23ED80E39150204071
:1007AE008040E1F700C000009FEFC91AD90AE90A9C
:1007BE00F90A0E942F0A882389F0898190E0019618
:1007CE0063E070E00E94EC0B89832FEF83EC99E0DD
:1007DE00215080409040E1F700C0000089818130B7
:1007EE0049F018F0823059F018C00E9485070E9417
:1007FE00DA0614C00E946E050E94DA060FC00E942F
:10080E00C908813F28ED920729F488EB92E20E94F5
:10081E00DA0604C00E94DA0601C019828FEF99E64B
:10082E0028E1815090402040E1F700C000002ECF1B
:10083E00EF92FF921F93CF93DF93CDB7DEB76897FA
:10084E000FB6F894DEBF0FBECDBF0E94210D8CEE09
:10085E000E94CD0C88E80E94CD0C0E94210D8DEED9
:10086E000E94CD0C10E00CC0E12EF12C0E94D70C92
:10087E00E1E0F0E0EC0FFD1FEE0DFF1D80831F5F2A
:10088E00173190F30E94E10C182F0E94C30C8A813D
:10089E0090E0982F88272981822B909303018093D3
:1008AE0002018C8190E0982F88272B81822B9093C8
:1008BE000501809304018E8190E0982F88272D8169
:1008CE00822B9093150180931401888590E0982FC8
:1008DE0088272F81822B90930D0180930C018A859E
:1008EE0090E0982F88272985822B9093070180937B
:1008FE0006018C8590E0982F88272B85822B90936C
:10090E000F0180930E018E8590E0982F88272D85FC
:10091E00822B9093090180930801888990E0982F8B
:10092E0088272F85822B90930B0180930A018A8949
:10093E0090E0982F88272989822B90931701809316
:10094E0016018C8990E0982F88272B89822B909303
:10095E000101809300018E8990E0982F88272D89C0
:10096E00822B9093110180931001812F90E0982F8C
:10097E0088272F89822B90931301809312016896FA
:10098E000FB6F894DEBF0FBECDBFDF91CF911F9192
:06099E00FF90EF900895A8
:1009A4004F925F926F927F928F929F92AF92BF927B
:1009B400CF92DF92EF92FF926B017C01AB01BC01FD
:1009C400689412F875956795579547951694D1F7DD
:1009D4004090020150900301612C712CD301C2019B
:1009E400880F991FAA1FBB1F9A01AB01281B390B43
:1009F4004A0B5B0BA0910401B09105010E94310DDB
:100A04004B015C01072E7BE0B594A79497948794DF
:100A14007A95D1F7702DD701C601689413F8B5956E
:100A2400A795979587951694D1F7BC01CD016419C4
:100A34007509860997099B01AC010E94570C9B011B
:100A4400AC01012E1CE055954795379527951A95CD
:100A5400D1F7102DA0911401B09115010E94310D10
:100A6400DC01CB01072E7EE0B595A7959795879578
:100A74007A95D1F7702D880D991DAA1DBB1D809301
:100A8400180190931901A0931A01B0931B016C01F2
:100A94007D01CC0CDD1CEE1CFF1CCC0CDD1CEE1C03
:100AA400FF1C8C0D9D1DAE1DBF1D80589F4FAF4F69
:100AB400BF4F692F7A2F8B2F992787FD9A95FF9027
:100AC400EF90DF90CF90BF90AF909F908F907F90EA
:080AD4006F905F904F900895B0
:100ADC001F93CF93DF930E94210D8CEE0E94CD0CBF
:100AEC008AEF0E94CD0C0E94210D8DEE0E94CD0C40
:100AFC000E94D70C182F0E94D70CC82F0E94E10C13
:100B0C00D82F0E94C30C812F90E0A0E0B0E0072EFC
:100B1C007CE0880F991FAA1FBB1F7A95D1F7702D07
:100B2C004C2F50E060E070E0440F551F661F771F9C
:100B3C00440F551F661F771F440F551F661F771FE5
:100B4C00440F551F661F771F842B952BA62BB72B95
:100B5C00D295DF70BC01CD016D2B0E94D2040E9496
:100B6C00210D8CEE0E94CD0C87EF0E94CD0C0E94C3
:100B7C00210D8DEE0E94CD0C0E94D70C182F0E94D7
:100B8C00D70CC82F0E94E10CD82F0E94C30C812FC8
:100B9C0090E0A0E0B0E0072E7CE0880F991FAA1F20
:100BAC00BB1F7A95D1F7702D4C2F50E060E070E0B0
:100BBC00440F551F661F771F440F551F661F771F65
:100BCC00440F551F661F771F440F551F661F771F55
:100BDC00842B952BA62BB72BD295DF70BC01CD01A6
:100BEC006D2B0E94D50020E034E640E050E00E94DE
:0C0BFC00990AC901DF91CF911F91089563
:100C080010C00E94550D58F00E944E0D40F029F476
:100C18005F3F29F00C94630D51110C945D0D0C94F9
:100C28008A0D0E94770A68F39923B1F3552391F34B
:100C3800951B550BBB27AA2762177307840738F043
:100C48009F5F5F4F220F331F441FAA1FA9F335D0A0
:100C58000E2E3AF0E0E832D091505040E695001C54
:100C6800CAF72BD0FE2F29D0660F771F881FBB1F0E
:100C7800261737074807AB07B0E809F0BB0B802DEC
:100C8800BF01FF2793585F4F3AF09E3F510578F018
:100C98000C94630D0C945D0D5F3FE4F3983ED4F320
:100CA800869577956795B795F7959F5FC9F7880FEC
:100CB800911D9695879597F90895E1E0660F771F3E
:100CC800881FBB1F621773078407BA0720F0621BCF
:0E0CD800730B840BBA0BEE1F88F7E09508959E
:100CE600CF92DF92EF92FF920F931F93CF93DF93F2
:100CF600CDB7DEB76A970FB6F894DEBF0FBECDBF8D
:100D06008B019C010F2EFFE8CF2EF1E0DF2EF0E0E5
:100D1600EF2EF02D81E1F601DE0111967E2D0E9467
:100D2600940C1A8E0115110521053105F9F468E8B0
:100D360071E080E00E94C20B2BC0D901C8018F7000
:100D46009927AA27BB27E1E0F0E0EC0FFD1FE80F8B
:100D5600F91F8081F70182937F01689413F8369515
:100D66002795179507951694D1F704C07E01FAE1E9
:100D7600EF0EF11C0115110521053105F1F66CE8A0
:100D860071E080E00E94C20BB70180E80E94C20BAE
:100D96006A960FB6F894DEBF0FBECDBFDF91CF9136
:0E0DA6001F910F91FF90EF90DF90CF90089576
:100DB400CF92DF92EF92FF920F931F93CF93DF9323
:100DC4009C01992314F420E030E0203187E23807B5
:100DD40014F02FE037E20AE010E0C901B8010E94E4
:100DE400EC0BCCE5D1E08B83B901330F880B990B65
:100DF4000E9411096B017C0120E030E040E251E4E3
:100E04000E94860D0E94470DCB01B8010E94EC0B95
:100E14008A8320E030E048EC52E4C701B6010E9426
:100E2400860D0E94470DCB01B8010E94EC0B89830B
:100E340020E030E04AE754E4C701B6010E94860D81
:100E44000E94470DCB01B8010E94EC0B8883DF910F
:100E5400CF911F910F91FF90EF90DF90CF90089565
:100E64008EB18F608EB9E0916001F0E0E45AFE4FDC
:100E74008081803180F4E0916001F0E0E45AFE4F1B
:100E8400808190E0A0E080569E4FAF4FFC0184919A
:100E9400A7FD808101C08FEF9BB193709BB99BB17B
:100EA400282F2C7F922B9BB995B19C7F95B995B136
:100EB4008370892B85B980916001813051F028F0CD
:100EC400823059F0833069F00FC08EB18E7F8EB9B5
:100ED4000BC08EB18D7F8EB907C08EB18B7F8EB95A
:100EE40003C08EB1877F8EB98091600190E0019636
:100EF40083709078992324F401978C6F9F6F0196E7
:060F0400809360010895D6
:100F0A001F93CF93DF930E94210D8CEE0E94CD0C8C
:100F1A008AEF0E94CD0C0E94210D8DEE0E94CD0C0D
:100F2A000E94D70C182F0E94D70CC82F0E94E10CE0
:100F3A00D82F0E94C30C812F90E0A0E0B0E0072ECA
:100F4A007CE0880F991FAA1FBB1F7A95D1F7702DD5
:100F5A004C2F50E060E070E0440F551F661F771F6A
:100F6A00440F551F661F771F440F551F661F771FB3
:100F7A00440F551F661F771F842B952BA62BB72B63
:100F8A00D295DF70BC01CD016D2B0E94D2042AE0FC
:100F9A0030E040E050E00E94AB0BC901DF91CF91F5
:040FAA001F910895F6
:100FAE00FF920F931F93CF93DF93CDB7DEB72C979E
:100FBE000FB6F894DEBF0FBECDBF1C86992354F436
:100FCE0090958095709561957F4F8F4F9F4FFF2421
:100FDE00F39401C0F12C611571058105910599F409
:100FEE0080E30E94400D21C02AE030E040E050E056
:100FFE000E94AB0B605DF80162938F01622F732F1D
:10100E00842F952F03C08E01045F1F4F16161706EF
:10101E00180619064CF3FF2021F0F8018DE2829399
:10102E008F01B80180E80E94C20B2C960FB6F8947F
:10103E00DEBF0FBECDBFDF91CF911F910F91FF90FD
:02104E00089503
:1010500088249924F401E401B0E49F93AA279A1507
:101060008B049C04ED05FE05CF05D007A10798F47D
:10107000AD2FDC2FCF2FFE2FE92D982C892E982F06
:10108000872F762F652F542F432F322F2227B850CA
:1010900031F7BF9127C01B2EBF91BB27220F331FF3
:1010A000441F551F661F771F881F991F881C991C96
:1010B000EE1FFF1FCC1FDD1FAA1FBB1F8A149B043E
:1010C000EC05FD05CE05DF05A007B10748F08A183D
:1010D0009B08EC09FD09CE09DF09A00BB10B2160CB
:1010E0001A94E1F62EF49401AF01BE01CD01000C7B
:0210F000089561
:1010F200DF93CF931F930F939A9DF02D219FF00DB5
:101102008B9DF00D8A9DE02DF10D039FF00D029F46
:10111200E00DF11D4E9DE00DF11D5E9DF00D4F9D08
:10112200F00D7F936F93BF92AF925F934F93D50170
:101132000E94770C8B01AC01D7010E94770CEB0166
:10114200E80FF91FD6010E94060D2F913F91D6019B
:101152000E94770CC60FD71FE81FF91FAF91BF91EE
:101162000E94060D2F913F910E94770CC60FD71F48
:10117200E81FF91FD6010E94770CE60FF71F9801AE
:10118200BE01CF0111240F911F91CF91DF910895DC
:10119200CF930E94D90A81113AC08CEC0E94470C6D
:1011A20084E40E94470C2FEF8EE994E221508040A4
:1011B2009040E1F700C000000E94D90A81112AC0C4
:1011C2008CEC0E94470C8EEB0E94470C0E94140C80
:1011D200C82F0E94140C90E0982F88278C2B9C011A
:1011E200220F331F880F991F880F991F880F991F8D
:1011F200280F391FC90199230CF40F9695958795ED
:1012020095958795959587959595879505C081EFD5
:0C12120098ED02C081EF98EDCF91089597
:10121E00E89409C097FB3EF4909580957095619582
:10122E007F4F8F4F9F4F9923A9F0F92F96E9BB2738
:10123E009395F695879577956795B795F111F8CFB4
:10124E00FAF4BB0F11F460FF1BC06F5F7F4F8F4F1F
:10125E009F4F16C0882311F096E911C0772321F015
:10126E009EE8872F762F05C0662371F096E8862FAD
:10127E0070E060E02AF09A95660F771F881FDAF704
:0A128E00880F9695879597F908954B
:10129800689401C0E894F92FF12B12F00C94890C92
:1012A800A0E0B0E0EAE5F9E00C94FC0A092E059408
:1012B80022F40E94670C112392F4F0E80F26FFEF46
:1012C800E094F09400951095B094C094D094A194B3
:1012D800BF0ACF0ADF0AEF0AFF0A0F0B1F0B0E9493
:1012E800280807FC0E94670CCDB7DEB7ECE00C9429
:0212F8004E0B9B
:1012FA001F920F920FB60F9211242F933F938F9341
:10130A009F93EF93FF933091C6008091630190E021
:10131A0001968F739078992324F40197806C9F6FBC
:10132A00019620916201281741F0E0916301F0E0F3
:10133A00E45EFE4F308380936301FF91EF919F91AA
:10134A008F913F912F910F900FBE0F901F9018957C
:10135A002FEF81EE94E0215080409040E1F700C0E9
:10136A00000080ED0E94940B883501F566EB80EE53
:10137A000E94D80B2FEF81EE94E0215080409040DC
:10138A00E1F700C000000E941F0467E284EF0E9498
:10139A00D80B60EA85EF0E94D80B2FEF81EE94E01C
:0E13AA00215080409040E1F700C000000895FF
:1013B8000E947F0A88F09F5798F0B92F9927B75154
:1013C800B0F0E1F0660F771F881F991F1AF0BA95E1
:1013D800C9F714C0B13091F00E945C0DB1E00895D6
:1013E8000C945C0D672F782F8827B85F39F0B93FC8
:1013F800CCF3869577956795B395D9F73EF4909594
:0E1408008095709561957F4F8F4F9F4F08958F
:101416001F920F920FB60F9211242F933F934F9363
:101426005F936F937F938F939F93AF93BF93EF9346
:10143600FF930E943207FF91EF91BF91AF919F9169
:101446008F917F916F915F914F913F912F910F9067
:081456000FBE0F901F901895C6
:10145E0096B1892F847092FD13C090916101911104
:10146E000FC02FEF30E782E0215030408040E1F78F
:10147E0000C0000032990EC081E080936101089592
:10148E00882349F080916101882329F0109261012F
:08149E0080E00895892F0895F4
:1014A6004FB7F8949091630180916201981303C03D
:1014B6004FBF80E00895E0916201F0E0E45EFE4FE8
:1014C60080812091620130E02F5F3F4F2F7330788B
:1014D600332334F421503109206C3F6F2F5F3F4F87
:0814E600209362014FBF08953D
:1014EE0057FD9058440F551F59F05F3F71F04795C7
:1014FE00880F97FB991F61F09F3F79F087950895AC
:10150E00121613061406551FF2CF4695F1DF08C0CA
:10151E00161617061806991FF1CF869571056105E7
:04152E000894089580
:10153200A1E21A2EAA1BBB1BFD010DC0AA1FBB1FD5
:10154200EE1FFF1FA217B307E407F50720F0A21B47
:10155200B30BE40BF50B661F771F881F991F1A94B4
:1015620069F760957095809590959B01AC01BD01DE
:04157200CF01089508
:1015760097FB10F8169400080F93083098F008505F
:10158600232F342F452F562F672F782F892F902DF5
:10159600F4CF0594979587957795679557954795D1
:0C15A600379527950A95AAF70F91089534
:1015B2000E94760D0E947E0D8FE797E00197F1F76A
:1015C20000C000000E947A0D0E94820DE7E1F1E066
:1015D2003197F1F700C000000E94690DE7E6F6E0DE
:0A15E2003197F1F700C000000895F2
:1015EC002F923F924F925F926F927F928F929F9227
:1015FC00AF92BF92CF92DF92EF92FF920F931F9315
:10160C00CF93DF93CDB7DEB7CA1BDB0B0FB6F894C5
:08161C00DEBF0FBECDBF099433
:101624008DB18F608DB98EB18F608EB98AB18C6F98
:101634008AB98BB18C6F8BB984B1836084B985B15D
:10164400836085B982E084BD93E095BD99EF97BD31
:0616540080936E00089572
:10165A00CF93C82F0E94760D0E947E0D85E08A9551
:10166A00F1F70000C1110E94820D8FEE90E0019700
:10167A00F1F700C000000E94820D95E09A95F1F7FB
:06168A000000CF9108955D
:101690002A88398848885F846E847D848C849B8402
:1016A000AA84B984C884DF80EE80FD800C811B8110
:1016B000AA81B981CE0FD11D0FB6F894DEBF0FBE3F
:0616C000CDBFED0108950D
:1016C6000F93083090F0982F872F762F652F542F81
:1016D600432F322F22270850F4CF220F331F441FE7
:1016E600551F661F771F881F991F0A95B2F70F911E
:0216F600089555
:1016F8000E94760D0E947E0D85E08A95F1F7000024
:101708000E947A0D0E94820D9AE49A95F1F700C022
:101718000E94690D811181E090EF9A95F1F7089583
:10172800CF93C82F0E94210D8CEE0E94CD0C8C2FD8
:101738000E94CD0C0E94210D8DEE0E94CD0C0E94BE
:0E174800E10CC82F0E94C30C8C2FCF91089586
:10175600052E97FB1EF400940E94290D57FD07D015
:101766000E94990A07FC03D04EF40C94290D50955B
:0E1776004095309521953F4F4F4F5F4F08959E
:10178400CF92DF92EF926B01E82E06C09FEFC91A49
:10179400D90AE90A0E94400DF6018491E7FC808190
:0C17A4008111F4CFEF90DF90CF900895FA
:1017B000CF93DF93D82FC62F0E94210D8CEE0E946D
:1017C000CD0C8D2F0E94CD0C8C2F0E94CD0C0E9431
:0817D000C30CDF91CF910895D5
:1017D80097FB072E16F4009407D077FD09D00E94D6
:1017E800000C07FC05D03EF4909581959F4F089515
:0817F800709561957F4F089583
:10180000AA1BBB1B51E107C0AA1FBB1FA617B70726
:1018100010F0A61BB70B881F991F5A95A9F7809542
:081820009095BC01CD01089573
:10182800CF93DF93C0E0D0E006C0D6950E947C0B32
:101838008111D068CF5FC830C0F38D2FDF91CF9171
:02184800089501
:10184A001092C50087E68093C400E1ECF0E088E1DD
:10185A00808380818068808386E08093C200789448
:02186A000895DF
:10186C00092E0394000C11F4882352F0BB0F40F4A2
:10187C00BF2B11F460FF04C06F5F7F4F8F4F9F4FE2
:02188C000895BD
:10188E00CF93DF93D82FC0E006C08D2F81700E94BA
:10189E002D0BD695CF5FC830C0F3DF91CF91089551
:1018AE00DB018F939F930E94AD0CBF91AF91A29FCE
:1018BE00800D911DA39F900DB29F900D1124089540
:1018CE0060957095809590953095409550952195A1
:1018DE003F4F4F4F5F4F6F4F7F4F8F4F9F4F08952B
:1018EE00A29FB001B39FC001A39F700D811D112453
:0E18FE00911DB29F700D811D1124911D089542
:10190C00689401C0E8948F929F92CF93DF930E94CA
:0C191C002808DF91CF919F908F900895D4
:10192800992777FD05C005900D920197E1F7089575
:0A19380001900D920197E1F7089568
:101942000024A7FD00942A173005400550056005C4
:08195200700580059005089561
:10195A000E94770CA59F900DB49F900DA49F800DB7
:06196A00911D11240895F7
:10197000EC010E94920D0E94910DCE010E94930DE8
:06198000CE010E948F0D54
:1019860084E98093BC008FE891E00197F1F700C0ED
:0419960000000895B0
:10199A008093BB0084E88093BC008091BC008823BC
:0419AA00E4F70895C1
:1019AE0084EC8093BC008091BC008823E4F7809186
:0419BE00BB000895CD
:1019C20084E88093BC008091BC008823E4F7809176
:0419D200BB000895B9
:1019D6001092B90088E48093B80084E08093BC003C
:0219E600089562
:1019E800209163019091620181E0291301C080E098
:0219F800089550
:1019FA000E94C20B8DE00E94400D8AE00E94400DB9
:021A0A0008953D
:101A0C000E94770C460F571FC81FD91F08F4319638
:021A1C0008952B
:101A1E002A0D3B1D4C1D5D1D6E1D7F1D801F911FD0
:021A2E00089519
:101A30002A193B094C095D096E097F09800B910B3E
:021A4000089507
:101A420084EA8093BC008091BC008823E4F7089567
:101A520090958095709561957F4F8F4F9F4F089518
:101A6200B7FF0C94AD0C0E94AD0C821B930B089532
:0E1A720087B18B7F87B988B1846088B90895E9
:0E1A80009091C00095FFFCCF8093C6000895A2
:0E1A8E000E94DC096894B1110C945D0D08955E
:0E1A9C0000240A941616170618060906089567
:0E1AAA0000240A941216130614060506089569
:0E1AB800E894BB2766277727CB0197F908959E
:0C1AC60097F99F6780E870E060E00895E9
:0A1AD20086B183FB882780F9089590
:081ADC0088B18E7F88B90895DE
:081AE40088B1816088B9089502
:081AEC0087B1886087B90895F5
:081AF40087B1877F87B90895CF
:081AFC0088B1877F88B90895C5
:081B040088B1886088B90895DA
:081B0C000E9404060C94360C43
:061B14009FEF80EC089534
:041B1A000C94000027
:041B1E000E9485009C
:021B2200089524
:021B2400089522
:021B2600089520
:00000001FF
